:020000040800F2
:1000000050040020450100084D0500081F030008AA
:100010004B0500088D0100087D0A00080000000063
:10002000000000000000000000000000A50800081B
:100030008F010008000000004F050008510900086A
:100040005F0100085F0100085F0100085F01000810
:100050005F0100085F0100085F0100085F01000800
:100060005F0100085F0100085F0100085F010008F0
:100070005F0100085F0100085F0100085F010008E0
:100080005F0100085F0100085F0100085F010008D0
:100090005F0100085F0100085F0100085F010008C0
:1000A0005F0100085F0100085F0100085F010008B0
:1000B0005F0100085F0100085F0100085F010008A0
:1000C0005F0100085F0100085F0100085F01000890
:1000D0005F0100085F0100085F0100085F01000880
:1000E0005F0100085F0100085F0100085F01000870
:1000F0005F0100085F0100085F0100085F01000860
:100100005F0100085F0100085F0100085F0100084F
:100110005F0100085F0100085F0100085F0100083F
:100120005F0100085F0100085F0100085F0100082F
:10013000DFF80CD000F018F800480047D50B000895
:10014000500400200648804706480047FEE7FEE7C7
:10015000FEE7FEE7FEE7FEE7FEE7FEE7FEE7FEE777
:100160005509000831010008064C074D06E0E0681B
:1001700040F0010394E8070098471034AC42F6D3EE
:10018000FFF7DAFF0816000828160008FEE7704798
:100190008000A0F1C0400029016802D041F00101B7
:1001A00001E0024A1140016070470000FEFF0F00AD
:1001B00010B5D0E901121143D0E903231A431143CA
:1001C0004269114382691143C2691143026A1143B2
:1001D000426A1143826A1143C26A1143026B11439E
:1001E00002689200A2F1C04211608168082907D11B
:1001F00001688900A1F1C0410A6842F040020A602A
:10020000416BD1E9002342EA03128B688C891B02FF
:1002100043EA04431A430B8A42EA03520B7D89697D
:1002200042EA03620A4301688900A1F1C0414A60C1
:10023000C16AB1F5804F08D000686FF0704180004E
:10024000A0F1C040C0F8041110BD816BD1E90023BA
:1002500042EA03128B680C8A1B0243EA04531A43D6
:100260000B7D896942EA036200680A438000A0F1BD
:10027000C040C0F8042110BDF0B5CA78002502F0D6
:100280000F03D20601D58A7813430A784FF00F0E78
:1002900012F0FF0F4FF001021CD004680F8802FA21
:1002A00005F63740B74211D14FEA850C0EFA0CF72C
:1002B00024EA070703FA0CF43C43CF78282F02D036
:1002C000482F02D002E0466100E006616D1C082D57
:1002D000E4D304600C88FF2C1ED944685FF000064C
:1002E00006F1080702FA07F50F882F40AF420FD139
:1002F0004FEA860C0EFA0CF7BC4303FA0CF73C43AA
:10030000CF78282F00D14561CF78482F00D10561E3
:10031000761C082EE4D34460F0BD01617047FEE70F
:1003200030B5002405462146204600F0EFF84FF096
:10033000D841222008804FF496304D80641C8442BE
:10034000FBD330BD08B50121080200F001F90121FD
:1003500040F2E11000F014F94CF23370ADF80000F7
:1003600003208DF8020018208DF8030069460D481F
:10037000FFF782FF4FF68070ADF8000069460A482B
:10038000FFF77AFF0120ADF8000069460748FFF744
:1003900073FF4FF48050ADF8000069460448FFF742
:1003A0006BFF08BD0014014000180140001C014013
:1003B00000200140064B10B45B68203AD2B21C68A2
:1003C000DB88534304EB430210BC00F019B8000073
:1003D00034000020F0B50D4607460024074E08E023
:1003E000E0B23946FFF7E6FF70686D1C8088204454
:1003F00084B22A78002AF3D1F0BD00003400002036
:100400002DE9F043CEB2904681460025314600F0FA
:100410007DF84FF0D847194C29E022203880002081
:100420001BE00C23B1FBF3F34FEAC30C802303FA68
:100430000CF338F815C0034113EA0C0F01D10C2955
:1004400006D9012383401CEA030F03D10C2901D9EB
:10045000618800E021887980401C91888142E0D841
:10046000761CF6B23146484600F050F86D1C6268C2
:10047000D088A842D1D8BDE8F08300003400002025
:1004800030B597B01E200024CDE90F04CDE911044A
:10049000149406201594CDE900041020CDE9024003
:1004A000139404940002CDE908400594069407943F
:1004B0000FAD0A9468460B94CDE90C45FFF778FE22
:1004C0000520CDE90F04CDE9110413941494684676
:1004D0000E951594FFF76CFE01210620FFF758FEDC
:1004E00017B030BD0148406870470000340000205C
:1004F0004FF0D841088048887047000001B5BDF82A
:1005000000000149488008BD340000200B4600B5BA
:1005100001464E2000F014F819464F205DF804EB18
:1005200000F00EB801494860704700003400002018
:1005300001B5BDF800000149088008BD3400002065
:100540004FF0D842108051807047FEE770477047E7
:10055000044A0029516901D0014300E081435161FF
:100560007047000000100240044A0029D16901D000
:10057000014300E08143D161704700000010024058
:10058000044A0029916901D0014300E0814391614F
:10059000704700000010024030B51F494A6812F051
:1005A0000C031E4A03D0042B01D0082B21D002607B
:1005B0004A680F231A4C03EA1212A35C0268DA405D
:1005C00042604B68072505EA1323E35C22FA03F334
:1005D00083604B6805EAD323E35CDA40C260496874
:1005E000032303EA9131231F595CB2FBF1F101614E
:1005F00030BD4A684B6802F470124FF0020413F4E5
:10060000803F04EB924202D04B689B0301D5054B1F
:1006100000E0024B5A43CAE70010024000127A0081
:100620000400002000093D0010B5FFF78BFEFFF726
:1006300027FF052000F0AEFA0020FFF759FFA0F5D4
:10064000094189397ED101210020FFF779FF4AF65F
:10065000A4010320FFF774FF00210C20FFF770FFB7
:1006600040F60C010D20FFF76BFF4FF42C510E20CC
:10067000FFF766FFB0211E20FFF762FF42F63F3111
:100680000120FFF75DFF4FF4C0610220FFF758FF24
:1006900000211020FFF754FF46F270011120FFF7F0
:1006A0004FFF00210520FFF74BFF00210620FFF739
:1006B00047FF4EF61C711620FFF742FF032117205B
:1006C000FFF73EFF40F233110720FFF739FF00210B
:1006D0000B20FFF735FF00210F20FFF731FF00212E
:1006E0004120FFF72DFF00214220FFF729FF0021C5
:1006F0004820FFF725FF40F23F1319464920FFF736
:100700001FFF00214A20FFF71BFF00214B20FFF7AE
:1007100017FF4FF46F414420FFF712FF00214520DF
:10072000FFF70EFF19464620FFF70AFF40F2077158
:100730003020FFF705FF4FF4017319463120FFF712
:10074000FFFE00E030E019463220FFF7F9FE40F2EC
:10075000025421463320FFF7F3FE611D3420FFF7DA
:10076000EFFE19463520FFF7EBFE19463620FFF75E
:10077000E7FE21463720FFF7E3FE40F20233194639
:100780003A20FFF7DDFE19463B20FFF7D9FE002196
:100790002320FFF7D5FE00212420FFF7D1FE4FF4E0
:1007A00000412520FFF7CCFEBDE81040052000F0F9
:1007B000F1B90000F8B50E46044625492448083131
:1007C00050F8240051F82410084340F001000121A2
:1007D000FFF7D6FE1E4808389CB350F824000121CC
:1007E000FFF7C2FE18208DF803001948694610383B
:1007F00030F81400ADF8000003208DF80200154811
:1008000050F82400FFF738FD04208DF8030010484D
:1008100069460C3830F81400ADF800000D48083077
:1008200050F82400FFF728FD0A4D3146083D55F8E1
:10083000240000F0C9F855F82400012100F0B2F8B6
:10084000F8BDFFE700680121FFF79AFECAE7000044
:10085000EC0C00081C00002038B501218020FFF7B7
:100860008FFE4FF4F864ADF8004010208DF80300BF
:100870000320064D8DF8020069462846FFF7FCFC70
:1008800021462846FFF749FD38BD0000001C014005
:10089000024931F81000024908607047FC0C00085A
:1008A000141C0140704700000CB50021264801913E
:1008B0000091026842F4803202604FF4A063026843
:1008C00002F400320092019A521C0192009A12B96D
:1008D000019A9A42F3D10268920333D50121009123
:1008E0001A490A6842F010020A600A6822F00302FC
:1008F0000A600A6842F002020A6041684160416889
:100900004160416841F480614160416821F47C119B
:100910004160416841F4E8114160016841F0807133
:10092000016001688901FCD5416821F00301416043
:10093000416841F0020141604168C1F3810102292F
:10094000FAD10CBD00910CBD001002400020024005
:10095000704700000F4810B5016841F001010160C7
:1009600041680D4A1140416001680C4A1140016024
:10097000016821F480210160416821F4FE01416099
:100980004FF41F018160FFF78FFF05494FF00060B2
:10099000086010BD001002400000FFF8FFFFF6FEE7
:1009A00008ED00E00029818902D041F4005101E006
:1009B00021F40051818170470246002012880A42CA
:1009C00000D001207047000030B50446008A85B091
:1009D0000D464CF6FF710840E98801432182A18948
:1009E0004EF6F3100140A8882A8910436A890A4309
:1009F0001043A081A08A4FF6FF410840A989014316
:100A0000A1826846FFF7C8FD1948844201D10398C6
:100A100000E00298A189090400EBC00101EB00107D
:100A2000296801D5490000E08900B0FBF1F064229B
:100A3000B0FBF2F109010B096FF018056B4300EBF5
:100A40008300A3891D044FF0320306D503EBC000D9
:100A5000B0FBF2F000F0070005E003EB0010B0FB84
:100A6000F2F000F00F000843208105B030BD000017
:100A700000380140C1F3080181807047FEE70000A3
:100A80000FB4054B10B503A9044A029800F017F8FB
:100A900010BC5DF814FB0000B10B00083C00002006
:100AA00002E008C8121F08C1002AFAD17047704737
:100AB000002001E001C1121F002AFBD170472DE97F
:100AC000F84F9946924688460546002706E02528B5
:100AD0000AD051464A4690476D1C7F1C2878002852
:100AE000F5D13846BDE8F88F002315F8011F1846E8
:100AF0002E2915D115F8011F04232A290DD06FF0D6
:100B00002F022978A1F13004092C09D800EB8000CC
:100B100002EB400008446D1CF3E758F8040B6D1C11
:100B20002A78002ADDD0632A07D0732A0FD0104616
:100B300051464A4690477F1C2AE018F8042B8DF84E
:100B4000002000218DF801106E46012103E058F8C5
:100B5000046B4FF0FF315A074FF0000401D409E055
:100B6000641C84420BDA8C42FADB325D002AF7D136
:100B700005E0641C8C42FCDB305D0028F9D1274481
:100B800004E016F8010B51464A469047641EF8D21D
:100B90006D1CA3E701B581B004490198484300905A
:100BA000002801D0401EFAE70CBD0000A08601001D
:100BB00070B5074D0446C1B22846FFF75BFF4021E0
:100BC0002846FFF7F9FE0028F9D0204670BD000046
:100BD00000380140FFF740FE27484FF4E131016043
:100BE00000218180C180018181810C2141810146E8
:100BF0000020FFF7DFFDFFF717FD2048FFF792FC0D
:100C00004FF6FF742046FFF78BFB1F20FFF776FCA3
:100C10002046FFF78DFCFFF765FC19A10020FFF7C8
:100C2000D9FBFFF75FFC80791BA1FFF7D3FBFFF730
:100C300059FC80791EA14006000EFFF7CBFB10A1E6
:100C400021A0FFF71DFF14A121A0FFF719FF18A194
:100C500020A0FFF715FF0020FFF71AFE0120FFF785
:100C600017FE0220FFF714FE0320FFF711FE0420F9
:100C7000FFF70EFEFEE70000400000202C000020E1
:100C80002053544D333220486967682044656E73A1
:100C9000697479200000000020446576696365204E
:100CA00072756E6E696E67206F6E20200000000006
:100CB0002053544D33323130452D52656442756CAA
:100CC0006C202020000000000A0D20257300000089
:100CD000202573002025730A0D0000000002040087
:100CE00000040800004000000000020004000000B2
:100CF0000400000004000000040000004000800028
:100D000000010002000400000000000000000000DC
:100D100000000000000000000000000000000000D3
:100D200000200020002000200020002000200000E3
:100D300000200000000000000050005000500000A3
:100D400000000000000000000000000000000000A3
:100D5000000900090012007F0012007F0012002429
:100D60000024000000000010003800540050005023
:100D70000038001400540054003800100000000037
:100D8000803000490049004AC0322005200920096E
:100D9000C010000000000000000C0012001200143F
:100DA0000018002500230023801D00000000000023
:100DB0000040004000400000000000000000000073
:100DC00000000000000000000008001000100020DB
:100DD0000020002000200020002000100010000053
:100DE0000040002000200010001000100010001033
:100DF00000100020002000000020007000200050A3
:100E000000000000000000000000000000000000E2
:100E10000000000000080008007F00080008000033
:100E200000000000000000000000000000000000C2
:100E30000000000000000000002000200040000032
:100E40000000000000000000000000700000000032
:100E50000000000000000000000000000000000092
:100E60000000000000000000002000000000000062
:100E70000010001000100020002000200020004082
:100E80000040000000000000001000280044004462
:100E9000004400440044002800100000000000004E
:100EA0000010003000500010001000100010001062
:100EB0000010000000000000003000480044000462
:100EC0000008001000200040007C0000000000002E
:100ED00000300048000400080010000800440048EA
:100EE0000030000000000000000800180018002872
:100EF00000280048007C00080008000000000000F6
:100F0000003C0020004000700048000400440048FD
:100F100000300000000000000018002400400050D5
:100F20000068004400440028001000000000000099
:100F3000007C0004000800100010001000200020B9
:100F400000200000000000000010002800440028DD
:100F500000100028004400280010000000000000DD
:100F60000010002800440044002C00140004004835
:100F70000030000000000000000000000020000021
:100F80000000000000000000002000000000000041
:100F90000000000000200000000000000000000031
:100FA0000020002000400000000000040008003085
:100FB00000400030000800040000000000000000B5
:100FC00000000000007C00000000007C0000000029
:100FD0000000000000000000000000400020001899
:100FE0000004001800200040000000000000000085
:100FF00000380064004400040008001000100000E5
:101000000010000000000000800F4010A02EA05132
:101010002051205120512053C04D2020401000006D
:1010200000080014001400140022003E00220041B9
:101030000041000000000000003C002200220022CD
:10104000003C002200220022003C000000000000C2
:10105000000E0011002100200020002000210011BE
:10106000000E000000000000003C002200210021D2
:101070000021002100210022003C000000000000AF
:10108000003E002000200020003E00200020002024
:10109000003E000000000000003E00200020002074
:1010A000003C002000200020002000000000000084
:1010B000000E001100210020002700210021001156
:1010C000000E00000000000000210021002100218E
:1010D000003F00210021002100210000000000004D
:1010E0000020002000200020002000200020002000
:1010F00000200000000000000008000800080008B0
:10110000000800080048004800300000000000000F
:101110000022002400280028003800280024002491
:10112000002200000000000000200020002000201D
:101130000020002000200020003E000000000000F1
:101140008020803180318031802A802A802A802A44
:10115000802400000000000000210031003100293F
:1011600000290025002300230021000000000000CA
:10117000000C00120021002100210021002100129A
:10118000000C000000000000003C002200220022B1
:10119000003C002000200020002000000000000093
:1011A000000C001200210021002100210021001666
:1011B000000D000100000000003E00210021002180
:1011C000003E0024002200218020000000000000DA
:1011D000001C002200220020001C0002002200222D
:1011E000001C000000000000003E0008000800088D
:1011F00000080008000800080008000000000000C7
:1012000000210021002100210021002100210012E5
:10121000000C0000000000000041004100220022FC
:101220000022001400140014000800000000000058
:101230004044404A402A802A802A802A802A802AE4
:101240000011000000000000004100220014001402
:1012500000080014001400220041000000000000FB
:1012600000410022002200140008000800080008C5
:101270000008000000000000007E000200040008DA
:101280000010001000200040007E00000000000060
:10129000003000200020002000200020002000203E
:1012A000002000200020000000400040002000201E
:1012B00000200020002000100010000000000000AE
:1012C00000600020002000200020002000200020DE
:1012D0000020002000200000001000280028002826
:1012E00000440000000000000000000000000000BA
:1012F00000000000000000000000000000000000EE
:1013000000000000007E00400020000000000000FF
:1013100000000000000000000000000000000000CD
:1013200000000000003800440004003C0044004479
:10133000003C000000000000004000400058006435
:101340000044004400440064005800000000000015
:10135000000000000030004800400040004000480D
:101360000030000000000000000400040034004CC5
:10137000004400440044004C003400000000000021
:1013800000000000003800440044007C004000449D
:1013900000380000000000000060004000E0004055
:1013A00000400040004000400040000000000000FD
:1013B000000000000034004C004400440044004C95
:1013C0000034000400440000004000400058006465
:1013D00000440044004400440044000000000000B9
:1013E000004000000040004000400040004000403D
:1013F00000400000000000000040000000400040ED
:10140000004000400040004000400040004000001C
:10141000004000400048005000600050005000486C
:101420000048000000000000004000400040004074
:10143000004000400040004000400000000000006C
:10144000000000000052006D0049004900490049B9
:101450000049000000000000000000000058006487
:101460000044004400440044004400000000000028
:1014700000000000003800440044004400440044E0
:101480000038000000000000000000000058006468
:101490000044004400440064005800400040000044
:1014A000000000000034004C004400440044004CA4
:1014B0000034000400040000000000000050006040
:1014C00000400040004000400040000000000000DC
:1014D00000000000003000480040003000080048D4
:1014E00000300000000000000040004000E000402C
:1014F000004000400040004000600000000000008C
:101500000000000000440044004400440044004C3B
:10151000003400000000000000000000004400440F
:10152000002800280028002800100000000000000B
:1015300000000000004900490055005500550055C5
:10154000002200000000000000000000004400280D
:1015500000280010002800280044000000000000BF
:10156000000000000044004400280028002800106B
:1015700000100010001000000000000000780008BB
:101580000010002000200040007800000000000053
:10159000001000200020002000200040002000203B
:1015A000002000200020000000200020002000205B
:1015B000002000200020002000200020002000004B
:1015C000004000200020002000200010002000200B
:1015D0000020002000200000000000000000007437
:1015E00000580000000000000000000000000000A3
:1015F000000000700050005000500050005000509B
:101600000070000000000000281600080000002004
:1016100040000000A00A00086816000840000020F2
:1016200010040000B00A00080204060800000000D0
:1016300001020304010203040607080900380140FF
:10164000004400400008014000080140000801403B
:1016500000080140060D00080C000C000000FFFF10
:08166000000000000000000082
:0400000508000131BD
:00000001FF
