:020000040800F2
:10000000D005002045010008BF0300088303000855
:10001000BD03000819020008B9050008000000002F
:10002000000000000000000000000000290400089B
:10003000D902000800000000A101000865050008C1
:100040005F0100085F0100085F0100085F01000810
:100050005F0100085F0100085F0100085F01000800
:100060005F0100085F0100085F0100085F010008F0
:100070005F0100085F0100085F0100085F010008E0
:100080005F0100085F0100085F0100085F010008D0
:100090005F0100085F0100085F0100085F010008C0
:1000A0005F0100085F0100085F0100085F010008B0
:1000B0005F0100085F0100085F0100085F010008A0
:1000C0005F0100085F0100085F0100085F01000890
:1000D0005F0100085F0100085F0100085F01000880
:1000E0005F0100085F0100085F0100085F01000870
:1000F0005F0100085F0100085F0100085F01000860
:100100005F0100085F0100085F0100085F0100084F
:100110005F0100085F0100085F0100085F0100083F
:100120005F0100085F0100085F0100085F0100082F
:10013000DFF80CD000F05EF800480047F905000831
:10014000D00500200648804706480047FEE7FEE746
:10015000FEE7FEE7FEE7FEE7FEE7FEE7FEE7FEE777
:100160006905000831010008EFF3108072B670478E
:1001700080F3108862B6704730B4174C4FF080554A
:10018000256030BC7047154C154D25604FF00004BC
:1001900084F30988104C4FF08055256062B6FEE765
:1001A00072B6EFF3098028B1203880E8F00F0D49CE
:1001B000096808600C480D490A78027009480C4922
:1001C0000A680260106890E8F00F203080F3098818
:1001D0004EF0040E62B6704704ED00E020ED00E042
:1001E0000000FFFF040000200000002001000020AC
:1001F00008000020064C074D06E0E06840F00103CF
:1002000094E8070098471034AC42F6D3FFF794FF08
:10021000B8060008D8060008FEE70000024A0121DF
:1002200002EBC000417170479C01002070B5DDE910
:10023000044604EB86044FF08076069D44E90106EF
:100240006FF0010044F8080C4FF0123044F80C0C29
:100250004FF0033044F8100C4FF0023044F8140C07
:10026000401044E907504FF0113044F8200C4FF093
:10027000103044F8240C4FF0093044F8280C4FF0AB
:10028000083044F82C0C4FF0073044F8300C4FF095
:10029000063044F8340C4FF0053044F8380D4FF078
:1002A000043044F8040D044840F8314000EBC1002C
:1002B00001714371827170BD9C0100200449054A9F
:1002C00002204968097902EBC101487170470000BA
:1002D000000000209C01002070470000F0B5CA78A3
:1002E000002502F00F03D20601D58A7813430A785D
:1002F0004FF00F0E12F0FF0F4FF001021CD00468F8
:100300000F8802FA05F63740B74211D14FEA850C43
:100310000EFA0CF724EA070703FA0CF43C43CF78F3
:10032000282F02D0482F02D002E0466100E006618B
:100330006D1C082DE4D304600C88FF2C1ED9446882
:100340005FF0000606F1080702FA07F50F882F4054
:10035000AF420FD14FEA860C0EFA0CF7BC4303FAFA
:100360000CF73C43CF78282F00D14561CF78482F38
:1003700000D10561761C082EE4D34460F0BD016114
:100380007047FEE708B564250B4E0446871CE0B2B3
:1003900000F03EF830460096401E0090FCD1042C40
:1003A00001DAF8B200E00120FFF738FFFFF786FF1F
:1003B00000F03CF8EBE7000080969800FEE77047FD
:1003C000044A0029916901D0014300E08143916111
:1003D000704700000010024038B501218020FFF76F
:1003E000EFFF4FF4F864ADF8004010208DF80300E3
:1003F0000320064D8DF8020069462846FFF76EFF80
:1004000021462846FFF7BBFF38BD0000001C014015
:1004100003490A68034B33F8100042400A607047F2
:100420000C1C0140AC06000870470000002030B4EE
:100430000F4B0246FF2100BF03EBC0046579012D7D
:1004400004D1A4798C4201D221460246401CC0B29C
:100450000628F1D307480478944206D0417003EB94
:10046000C201816030BCFFF787BE30BC704700001E
:100470009C010020000000200CB5002126480191BD
:100480000091026842F4803202604FF4A063026877
:1004900002F400320092019A521C0192009A12B9A1
:1004A000019A9A42F3D10268920333D50121009157
:1004B0001A490A6842F010020A600A6822F0030230
:1004C0000A600A6842F002020A60416841604168BD
:1004D0004160416841F480614160416821F47C11D0
:1004E0004160416841F4E8114160016841F0807168
:1004F000016001688901FCD5416821F00301416078
:10050000416841F0020141604168C1F38101022963
:10051000FAD10CBD00910CBD001002400020024039
:10052000002030B40D4B0246FF2100BF03EBC00496
:100530006579012D04D1A4798C4201D2214602466D
:10054000401CC0B20628F1D305484170017003EB8E
:10055000C2018160416030BCFFF715BE9C010020E4
:1005600000000020704700000F4810B5016841F0FE
:100570000101016041680D4A1140416001680C4A67
:1005800011400160016821F480210160416821F47B
:10059000FE0141604FF41F018160FFF76DFF0549C7
:1005A0004FF00060086010BD001002400000FFF82E
:1005B000FFFFF6FE08ED00E0FEE702E008C8121FAC
:1005C00008C1002AFAD170477047002001E001C13C
:1005D000121F002AFBD1704710B500200F230549D8
:1005E0005FF0FF0401EBC002401C537194710628B8
:1005F000F8DB10BD9C0100200EB5FFF7EDFEFFF704
:10060000EBFF14241E49CDE90014002001230290C1
:10061000032219461B48FFF709FE194801215030F3
:100620000090CDE901410B46042202211548FFF755
:10063000FDFD13480221A0300090CDE901410123C6
:10064000052203210F48FFF7F1FD0D480321F0308B
:100650000090CDE901410123062204210948FFF75A
:10066000E5FD094800900421CDE90141012307225D
:1006700005210448FFF7DAFDFFF752FFFEE700000F
:100680000C000020850300084C010020000204003B
:100690000004080000400000000002000400000008
:1006A000040000000400000004000000400080007E
:1006B0000001000200040000D8060008000000202D
:1006C0000C000000BA050008E40600080C00002039
:1006D000C4050000CA05000800000000000000007A
:0406E0000000000016
:0400000508000131BD
:00000001FF
