:020000040800F2
:1000000040490020E9010008B50600087304000813
:10001000B3060008E1020008DD0900080000000046
:100020000000000000000000000000004501000882
:10003000E302000800000000890100084D120008DA
:10004000030200080302000803020008030200087C
:10005000030200080302000803020008030200086C
:10006000030200080302000803020008030200085C
:10007000030200080302000803020008030200084C
:10008000030200080302000803020008030200083C
:10009000030200080302000803020008030200082C
:1000A000030200080302000803020008030200081C
:1000B000030200080302000803020008030200080C
:1000C00003020008030200080302000803020008FC
:1000D00003020008030200080302000803020008EC
:1000E00003020008030200080302000803020008DC
:1000F00003020008030200080302000803020008CC
:1001000003020008030200080302000803020008BB
:1001100003020008030200080302000803020008AB
:10012000030200080302000803020008030200089B
:10013000DFF80CD000F080F800480047910D00086F
:1001400040490020204B19680868B0E8F00F80F3A0
:100150000988BFF36F8F4FF0000080F311884EF0D5
:100160000D0E70470000000006480068006880F32C
:10017000088862B661B6BFF34F8FBFF36F8F00DFA1
:1001800000BF00BF08ED00E0EFF30980BFF36F8F01
:100190000D4B1A6820E9F00F106008B54FF0BF0052
:1001A00080F3118801F018F84FF0000080F31188F7
:1001B000BDE8084019680868B0E8F00F80F30988C6
:1001C000BFF36F8F704700BF24000020EFF3118052
:1001D0004FF0BF0181F31188704780F31188704799
:1001E000EFF3058070470000064880470648004747
:1001F000FEE7FEE7FEE7FEE7FEE7FEE7FEE7FEE7D7
:10020000FEE7FEE78D0900083101000830B50B4616
:10021000014600202022012409E021FA02F59D4236
:1002200005D303FA02F5491B04FA02F52844151E0A
:10023000A2F10102F1DC30BD064C074D06E0E0689A
:1002400040F0010394E8070098471034AC42F6D31D
:10025000FFF772FF641E0008841E000886B018A213
:1002600001AB07CA83E8070001F0B0F8174C4FF460
:100270007A7600250490314604A800F051FF2068EA
:10028000401C20603C2801D0606803E02560606865
:10029000401C60603C2803D16560A068401CA060E1
:1002A00020680090D4E9013209A101A800F098FB70
:1002B00000F0C2F901A9002000F036F9DBE70000E8
:1002C00030303A30303A303000000000000000207A
:1002D000253032643A253032643A253032640000E9
:1002E000FEE770478000A0F1C0400029016802D0FD
:1002F00041F0010101E0024A114001607047000035
:10030000FEFF0F0010B5D0E901121143D0E903231D
:100310001A4311434269114382691143C26911436F
:10032000026A1143426A1143826A1143C26A11434D
:10033000026B114302689200A2F1C0421160816811
:10034000082907D101688900A1F1C0410A6842F07B
:1003500040020A60416BD1E9002342EA03128B6834
:100360008C891B0243EA04431A430B8A42EA035274
:100370000B7D896942EA03620A4301688900A1F1A1
:10038000C0414A60C16AB1F5804F08D000686FF083
:1003900070418000A0F1C040C0F8041110BD816B15
:1003A000D1E9002342EA03128B680C8A1B0243EA5C
:1003B00004531A430B7D896942EA036200680A43C9
:1003C0008000A0F1C040C0F8042110BDF0B5CA788B
:1003D000002502F00F03D20601D58A7813430A786C
:1003E0004FF00F0E12F0FF0F4FF001021CD0046807
:1003F0000F8802FA05F63740B74211D14FEA850C53
:100400000EFA0CF724EA070703FA0CF43C43CF7802
:10041000282F02D0482F02D002E0466100E006619A
:100420006D1C082DE4D304600C88FF2C1ED9446891
:100430005FF0000606F1080702FA07F50F882F4063
:10044000AF420FD14FEA860C0EFA0CF7BC4303FA09
:100450000CF73C43CF78282F00D14561CF78482F47
:1004600000D10561761C082EE4D34460F0BD016123
:100470007047FEE730B5002405462146204600F0CF
:10048000EFF84FF0D841222008804FF496304D808D
:10049000641C8442FBD330BD08B50121080200F082
:1004A00015F9012140F2E11000F01CF94CF2337013
:1004B000ADF8000003208DF8020018208DF803002D
:1004C00069460D48FFF782FF4FF68070ADF80000D7
:1004D00069460A48FFF77AFF0120ADF80000694637
:1004E0000748FFF773FF4FF48050ADF800006946EE
:1004F0000448FFF76BFF08BD0014014000180140DD
:10050000001C014000200140064B10B45B68203AFB
:10051000D2B21C68DB88534304EB430210BC00F0EA
:1005200019B8000014000020F0B50D46074600245D
:10053000074E08E0E0B23946FFF7E6FF70686D1C31
:100540008088204484B22A78002AF3D1F0BD0000CC
:10055000140000202DE9F043CEB2904681460025DC
:10056000314600F07DF84FF0D847194C29E02220A1
:10057000388000201BE00C23B1FBF3F34FEAC30CDF
:10058000802303FA0CF338F815C0034113EA0C0F6B
:1005900001D10C2906D9012383401CEA030F03D1A2
:1005A0000C2901D9618800E021887980401C91885C
:1005B0008142E0D8761CF6B23146484600F050F849
:1005C0006D1C6268D088A842D1D8BDE8F0830000D5
:1005D0001400002030B597B01E200024CDE90F0490
:1005E000CDE91104149406201594CDE900041020DF
:1005F000CDE90240139404940002CDE9084005942B
:10060000069407940FAD0A9468460B94CDE90C4507
:10061000FFF778FE0520CDE90F04CDE9110413940E
:10062000149468460E951594FFF76CFE0121062080
:10063000FFF758FE17B030BD014840687047000012
:10064000140000204FF0D84108804888704700000F
:1006500001B5BDF800000149488008BD1400002024
:100660000B4600B501464E2000F00EF819464F200B
:100670005DF804EB00F008B801B5BDF800000149D1
:10068000088008BD140000204FF0D842108051802F
:10069000704708B5044600F099FE00902546C82032
:1006A0004443E8B200F012F92146684600F038FDF4
:1006B000F7E7FEE770470000024908430249086077
:1006C000704700000000FA050CED00E0044A002924
:1006D000516901D0014300E081435161704700003E
:1006E00000100240044A0029916901D0014300E052
:1006F00081439161704700000010024010B5FFF780
:10070000CBFEFFF767FF052000F034FB0020FFF76A
:1007100099FFA0F5094189397ED101210020FFF719
:10072000B3FF4AF6A4010320FFF7AEFF00210C201F
:10073000FFF7AAFF40F60C010D20FFF7A5FF4FF4CD
:100740002C510E20FFF7A0FFB0211E20FFF79CFFC9
:1007500042F63F310120FFF797FF4FF4C0610220BE
:10076000FFF792FF00211020FFF78EFF46F2700185
:100770001120FFF789FF00210520FFF785FF0021E9
:100780000620FFF781FF4EF61C711620FFF77CFF55
:1007900003211720FFF778FF40F233110720FFF7FE
:1007A00073FF00210B20FFF76FFF00210F20FFF7E1
:1007B0006BFF00214120FFF767FF00214220FFF778
:1007C00063FF00214820FFF75FFF40F23F13194607
:1007D0004920FFF759FF00214A20FFF755FF00216C
:1007E0004B20FFF751FF4FF46F414420FFF74CFFC0
:1007F00000214520FFF748FF19464620FFF744FF38
:1008000040F207713020FFF73FFF4FF401731946A4
:100810003120FFF739FF00E034E019463220FFF7BE
:1008200033FF40F2025421463320FFF72DFF611DB4
:100830003420FFF729FF19463520FFF725FF194619
:100840003620FFF721FF21463720FFF71DFF40F23A
:10085000023319463A20FFF717FF19463B20FFF7EE
:1008600013FF00212320FFF70FFF00212420FFF7B3
:100870000BFF4FF400412520FFF706FF0448A0F1CD
:1008800008014860BDE81040052000F073BA000080
:100890001C00002038B501218020FFF723FF4FF412
:1008A000F864ADF8004010208DF803000320064DD9
:1008B0008DF8020069462846FFF788FD2146284644
:1008C000FFF7D5FD38BD0000001C014003490A6850
:1008D000034B33F8100042400A6070470C1C014083
:1008E000581500080CB500212648019100910268B6
:1008F00042F4803202604FF4A063026802F40032D6
:100900000092019A521C0192009A12B9019A9A42DD
:10091000F3D10268920333D5012100911A490A6884
:1009200042F010020A600A6822F003020A600A68B4
:1009300042F002020A6041684160416841604168DA
:1009400041F480614160416821F47C11416041685B
:1009500041F4E8114160016841F080710160016873
:100960008901FCD5416821F003014160416841F0F3
:10097000020141604168C1F381010229FAD10CBD35
:1009800000910CBD00100240002002400F4810B53D
:10099000016841F00101016041680D4A1140416068
:1009A00001680C4A11400160016821F48021016056
:1009B000416821F4FE0141604FF41F018160FFF79F
:1009C00091FF05494FF00060086010BD0010024023
:1009D0000000FFF8FFFFF6FE08ED00E0FEE7000074
:1009E0000FB4084B10B504A902AA039800F01CF834
:1009F000044602A9002000F0B8F9204610BC5DF8BA
:100A000014FB00006B0D000802E008C8121F08C1AB
:100A1000002AFAD170477047002001E001C1121F7F
:100A2000002AFBD1704700002DE9FF4F8BB08846AC
:100A30000546002606E025280BD0DDE90D1290477B
:100A40006D1C761C28780028F5D10FB03046BDE823
:100A5000F08F0024A146A2460122AE4900E00443E3
:100A600015F8013F203B02FA03F00842F7D128783D
:100A70002A2810D06FF02F022878A0F13001092920
:100A800015D809EB890102EB410144F0020400EBA7
:100A900001096D1CF0E758F8041B5FEA010903D552
:100AA00044F40054C9F1000944F002046D1C287894
:100AB0002E2817D115F8010F44F004042A280ED06F
:100AC0006FF02F022878A0F1300109290AD80AEB2B
:100AD0008A0102EB410100EB010A6D1CF2E758F8B4
:100AE00004AB6D1C28786C280FD006DC4C2817D07E
:100AF00068280DD06A2814D104E0742810D07A2810
:100B00000FD10DE044F400140AE044F4801401E035
:100B100044F440146978814202D104F580146D1CBC
:100B20006D1C2878692865D006DC00288DD06328E4
:100B300027D0642806D15DE06E2808D073282AD01B
:100B4000752877D0DDE90D129047761CE0E0C4F3FC
:100B50000250022809D003280DD0D8F8001004282C
:100B60000DD00E6008F10408D2E0D8F80010F2179A
:100B7000C1E90062F6E7D8F800100E80F2E70E70C7
:100B8000F0E718F8041B8DF8001000208DF8010024
:100B9000EB46012003E058F804BB4FF0FF3061073B
:100BA0004FF0000701D40AE07F1C57450DDA874259
:100BB000FADB1BF807100029F6D106E07F1C8742FC
:100BC000FCDB1BF807100029F8D1DDE90D23A9EBA8
:100BD00007008146214600F0B1F83044C61904E010
:100BE000DDE90D121BF8010B90477F1EF8D221465C
:100BF000484688E058F8040BC4F302514FF00A0B42
:100C0000032900D100B2042900D140B2002802DA41
:100C100040422D2102E0210505D52B218DF824101D
:100C2000012104E006E0E10710D02021F6E708AF3B
:100C3000089113E058F8040BC4F302514FF00A0B6B
:100C4000032900D180B2042900D1C0B20021EEE70F
:100C50005946FFF7DBFA303107F8011D0028F7D1BC
:100C6000ADEB070000F1200B600702D524F48034BF
:100C700001E04FF0010ADA4502DDAAEB0B0000E0CB
:100C80000020824600EB0B0108980144A9EB01000B
:100C90000A90E00306D4DDE90D2321460A9800F00E
:100CA0004DF806444FF0000908E009A911F80900C1
:100CB000DDE90D12904709F10109761C0899894573
:100CC000F3DBE0030CD5DDE90D2321460A9800F0A3
:100CD00035F8064404E0DDE90D1230209047761C1B
:100CE000BAF10001AAF1010AF5DC05E0DDE90D1217
:100CF00017F8010B9047761CBBF10001ABF1010B1B
:100D0000F4DC0A982146DDE90D2300F005F80644DD
:100D10006D1C97E6092801002DE9F04104460025E5
:100D20001E461746880404D405E039462020B04703
:100D30006D1C641EF9D52846BDE8F0812DE9F0410F
:100D4000044600251E469046C80301D5302700E022
:100D50002027880404D505E041463846B0476D1C7D
:100D6000641EF9D52846BDE8F0810A68531C0B6063
:100D70001070704701B581B0044901984843009054
:100D8000002801D0401EFAE70CBD0000A08601003B
:100D90002DE9FF414FF44070FFF78EFCFFF77AFD1D
:100DA000FFF7ACFC4FF6FF742046FFF763FB1F20F4
:100DB000FFF74EFC2046FFF75FFC00240A251E4883
:100DC0000095CDE901044FF4007723463A461BA174
:100DD0001C48039400F04CFA174E0095361DCDE9DF
:100DE000016401233A4618A11A48039400F040FA1E
:100DF0000095CDE9016402233A4617A115480394F2
:100E000000F036FA0095CDE9016403233A4612A1B9
:100E10001048039400F02CFA0095CDE901640423F6
:100E20003A460DA10B48039400F022FA00F0AAF90B
:100E300004B00020BDE8F0810C000020424B5F4769
:100E40004E4400005D0200084C4544315F5461731C
:100E50006B000000930600084C4544325F546173F8
:100E60006B00000070B50B4C054620684560E068DB
:100E70002168854205D2606BBDE87040091D00F015
:100E8000DFB8206B091D00F0DBF8A06A854200D2B4
:100E9000A56270BD2400002070B5124E124C1AE0FD
:100EA00000F092F93068D0B100F0F6FA00F0ECF8FA
:100EB000F068C568281D00F0A3F8A068401EA06077
:100EC0006068401E606000F0EDF8286B00F0F4F8F8
:100ED000284600F0F1F860680028E1D170BD00F00C
:100EE000DBFAF8E71801002024000020044C00BFC2
:100EF000FFF7D2FF20680128FAD900F005F9F7E7DB
:100F0000780000200648016B096829B1016BC968A7
:100F1000C9684968816270474FF0FF31FAE7000005
:100F200024000020FFF752F9FEE700002DE9F04110
:100F30000446002500F048F9274A02F108015068EC
:100F400001F1080368B92548002720F00700C1E92E
:100F5000000744F2F836C3E90076C0E90036012004
:100F6000506044F2F73094B30834660704D004F0BC
:100F70000706C6F108063444661E864227D2164884
:100F80000968083001E0084631464E68A64202D2A0
:100F90000E68002EF7D1994219D005680B680360DE
:100FA00048680835001B10280DD90B1958600A48ED
:100FB0004C6008305E6800E0204604686768B7420D
:100FC000FAD31C60036048681168081A106000F0CA
:100FD00063FA2846BDE8F0815C000020480100204B
:100FE00010B5031F4FF080741C601B1F1960191F80
:100FF000024B0B60143940380A6010BD250F000801
:10100000D0E9013201699A60D0E901235A604A6847
:10101000824201D182684A60002202610868401E53
:101020000860704700F108014FF0FF32C0E901127B
:10103000C1600161002101607047002101617047BA
:1010400030B50B685A1C02D000F1080202E00269B8
:1010500004E02246546825689D42FAD953684B60E3
:1010600099608A60516008610168491C016030BD67
:1010700042684A6093688B60936859609160086128
:101080000168491C0160704710B5FFF79FF80448DC
:101090000168491CBFF34F8FBFF36F8F016010BD14
:1010A0007400002003490868401E086001D1FFF762
:1010B00094B870477400002010B5002817D0A0F134
:1010C000080400F081F80A48616800E010460268F0
:1010D00053688B42FAD3226004600548616808387F
:1010E000026811440160BDE8104000F0D5B910BDA0
:1010F000640000204FF0E0200249416107210161B6
:10110000704700003F19010004494FF0805008600B
:10111000BFF34F8FBFF36F8F7047000004ED00E007
:1011200070B50C46034600F04FF8154DEA68186894
:101130000444904204D9A0420BD9944202D808E05A
:10114000A042FAD91C602868001DFFF759FF10B1B2
:1011500009E01C600AE0286890F82C100120884003
:101160002969814329612046FFF77CFE00F094F94C
:10117000002803D1BDE87040FFF7C6BF70BD000076
:10118000240000201FB500240094019402942346FB
:10119000802209A10A48039400F06AF8012809D1C5
:1011A000FFF714F8074801214161C460BDE81F4002
:1011B00000F034B81FBD000049444C450000000059
:1011C000ED0E0008240000200248C16A491CC162DB
:1011D00070470000240000200E48C16A11B10121AF
:1011E000C16170470021C16101690B4AB1FA81F107
:1011F000C1F11F0101EB810102EB810101F1080343
:101200004A6852684A609A4201D152684A60D1687D
:10121000016070472400002078000020094810B5C4
:10122000016841F47F010160016841F07F41016084
:10123000FFF760FF044900200860FEF795FF0020DB
:1012400010BD000020ED00E07400002010B5FEF796
:10125000BDFF00F0C7F818B104494FF08050086096
:10126000BDE810400020FEF7B8BF000004ED00E02C
:101270002DE9F05F8346DDE90A689A4615468946FE
:1012800044200C9FFFF752FE04004BD0F7B33846C2
:101290002063E0B36FF0030101EB8501084420F007
:1012A000070749463546002022180B5C82F8343087
:1012B0000A5C12B1401C1028F6D3002184F84310B8
:1012C000052D00D30425201DE562FFF7B6FE04F1CD
:1012D0001800FFF7B2FE2461C5F105016462A16147
:1012E000524659463846FFF77BFE2060B8F1000FA2
:1012F00001D0C8F80040FFF7C7FE324DA868401C77
:10130000A8602868DFF8C08078B101E003E006E05B
:10131000686990B337E0A800FFF708FEB8E72046F9
:10132000FFF7CAFE4FF0FF3448E02C60A8680128A0
:1013300029D1002707EB870108EB8100FFF772FE38
:101340007F1C052FF6D320486430FFF76BFE1E4844
:101350007830FFF767FE1C488C30FFF763FE1A48B1
:10136000A030FFF75FFE1848B430FFF75BFE164869
:10137000643028631430686305E0FFE72868C06ABA
:10138000B04200D82C60686A401C6862E16A0120A3
:101390002A6988401043286101EB810108EB810034
:1013A000211DFFF765FE0124FFF77CFE686928B167
:1013B0002868C06AB04201D2FFF7A6FE2046BDE809
:1013C000F09F0000240000207800002010B5FFF7F7
:1013D0005BFE0348C468FFF765FE204610BD0000B1
:1013E000240000202DE9F041294C0026E06A40B19C
:1013F000A069401CA061E06900B101263046BDE84B
:10140000F081E068401CE060E76847B9206B616BE1
:1014100021636063206A401C2062FFF773FDA06AAD
:10142000DFF87080874209D3206B006880B1206BA1
:10143000C068C568686887420DD2A0622068C06A2B
:1014400000EB800158F821000128D4D90126D2E709
:101450004FF0FF30F1E7281DFFF7D2FDA86A18B161
:1014600005F11800FFF7CCFDE86A012122698140EF
:101470001143216100EB800108EB8100291DFFF77A
:10148000F7FDE86A2168C96A8842CDD30126CBE717
:1014900024000020780000202DE9F0470027FFF706
:1014A000F3FD234CE06A401EE062E06A98BBA1684D
:1014B000204E012079B3A6F18C0980463068E8B14E
:1014C000F068C56805F11800FFF79AFD281DFFF7C1
:1014D00097FDE96A226908FA01F01043206101EBE7
:1014E000810109EB8100291DFFF7C2FDE86A21682F
:1014F000C96A8842E2D3C4F81C80DFE7A06958B10A
:101500004546A06940B1FFF76DFF00B1E561A069F4
:10151000401EA061F5E705E0E069012802D101273E
:10152000FFF7F2FDFFF7BEFD3846BDE8F08700008B
:101530002400002004010020000204000004080030
:101540000040000000000200040000000400000051
:1015500004000000040000004000800000010002C0
:101560000004000000000000000000000000000077
:10157000000000000000000000000000002000202B
:10158000002000200020002000200000002000009B
:10159000000000000050005000500000000000005B
:1015A0000000000000000000000000000009000929
:1015B0000012007F0012007F0012002400240000AF
:1015C0000000001000380054005000500038001493
:1015D0000054005400380010000000008030004922
:1015E0000049004AC032200520092009C01000002F
:1015F00000000000000C001200120014001800256A
:1016000000230023801D0000000000000040004077
:10161000004000000000000000000000000000008A
:101620000000000000080010001000200020002032
:1016300000200020002000100010000000400020CA
:1016400000200010001000100010001000100020FA
:10165000002000000020007000200050000000006A
:10166000000000000000000000000000000000007A
:1016700000080008007F00080008000000000000CB
:10168000000000000000000000000000000000005A
:1016900000000000002000200040000000000000CA
:1016A00000000000000000700000000000000000CA
:1016B000000000000000000000000000000000002A
:1016C00000000000002000000000000000100010DA
:1016D00000100020002000200020004000400000FA
:1016E00000000000001000280044004400440044B2
:1016F000004400280010000000000000001000302E
:101700000050001000100010001000100010000029
:1017100000000000003000480044000400080010F1
:1017200000200040007C0000000000000030004865
:1017300000040008001000080044004800300000C9
:1017400000000000000800180018002800280048C9
:10175000007C00080008000000000000003C0020A1
:1017600000400070004800040044004800300000C1
:1017700000000000001800240040005000680044F1
:10178000004400280010000000000000007C00045D
:1017900000080010001000100020002000200000B1
:1017A000000000000010002800440028001000285D
:1017B0000044002800100000000000000010002875
:1017C00000440044002C00140004004800300000D5
:1017D00000000000000000000020000000000000E9
:1017E00000000000002000000000000000000000D9
:1017F0000020000000000000000000000020002089
:1018000000400000000000040008003000400030EC
:1018100000080004000000000000000000000000BC
:10182000007C00000000007C0000000000000000C0
:101830000000000000000040002000180004001814
:10184000002000400000000000000000003800649C
:101850000044000400080010001000000010000008
:1018600000000000800F4010A02EA05120512051F8
:1018700020512053C04D20204010000000080014CB
:10188000001400140022003E00220041004100002C
:1018900000000000003C002200220022003C002248
:1018A00000220022003C000000000000000E001199
:1018B000002100200020002000210011000E000067
:1018C00000000000003C0022002100210021002136
:1018D00000210022003C000000000000003E00202B
:1018E00000200020003E002000200020003E0000DC
:1018F00000000000003E002000200020003C0020EE
:10190000002000200020000000000000000E001158
:10191000002100200027002100210011000E0000FE
:10192000000000000021002100210021003F0021D3
:101930000021002100210000000000000020002004
:1019400000200020002000200020002000200000B7
:101950000000000000080008000800080008000857
:101960000048004800300000000000000022002471
:10197000002800280038002800240024002200004D
:101980000000000000200020002000200020002097
:1019900000200020003E0000000000008020803178
:1019A00080318031802A802A802A802A8024000089
:1019B000000000000021003100310029002900252D
:1019C000002300230021000000000000000C001292
:1019D000002100210021002100210012000C000044
:1019E00000000000003C002200220022003C0020F9
:1019F000002000200020000000000000000C001269
:101A0000002100210021002100210016000D00010D
:101A100000000000003E002100210021003E0024C3
:101A2000002200218020000000000000001C002295
:101A300000220020001C000200220022001C0000E6
:101A400000000000003E0008000800080008000830
:101A5000000800080008000000000000002100212C
:101A6000002100210021002100210012000C0000B3
:101A7000000000000041004100220022002200146A
:101A80000014001400080000000000004044404A18
:101A9000402A802A802A802A802A802A0011000079
:101AA000000000000041002200140014000800148F
:101AB000001400220041000000000000004100224C
:101AC00000220014000800080008000800080000B8
:101AD00000000000007E000200040008001000105A
:101AE00000200040007E00000000000000300020C8
:101AF00000200020002000200020002000200020E6
:101B000000200000004000400020002000200020B5
:101B10000020001000100000000000000060002005
:101B200000200020002000200020002000200020B5
:101B300000200000001000280028002800440000B9
:101B40000000000000000000000000000000000095
:101B50000000000000000000000000000000000085
:101B6000007E004000200000000000000000000097
:101B70000000000000000000000000000000000065
:101B8000003800440004003C00440044003C0000D5
:101B90000000000000400040005800640044004481
:101BA0000044006400580000000000000000000035
:101BB0000030004800400040004000480030000075
:101BC00000000000000400040034004C0044004405
:101BD0000044004C00340000000000000000000041
:101BE000003800440044007C0040004400380000FD
:101BF000000000000060004000E0004000400040A5
:101C00000040004000400000000000000000000014
:101C10000034004C004400440044004C00340004F4
:101C200000440000004000400058006400440044AC
:101C30000044004400440000000000000040000098
:101C400000400040004000400040004000400000D4
:101C50000000000000400000004000400040004044
:101C600000400040004000400040000000400040B4
:101C7000004800500060005000500048004800003C
:101C800000000000004000400040004000400040D4
:101C90000040004000400000000000000000000084
:101CA0000052006D00490049004900490049000008
:101CB00000000000000000000058006400440044E0
:101CC0000044004400440000000000000000000048
:101CD0000038004400440044004400440038000040
:101CE00000000000000000000058006400440044B0
:101CF0000044006400580040004000000000000064
:101D00000034004C004400440044004C0034000403
:101D1000000400000000000000500060004000408F
:101D200000400040004000000000000000000000F3
:101D3000003000480040003000080048003000003B
:101D4000000000000040004000E000400040004073
:101D500000400040006000000000000000000000A3
:101D600000440044004400440044004C003400009F
:101D7000000000000000000000440044002800288B
:101D800000280028001000000000000000000000F3
:101D9000004900490055005500550055002200003B
:101DA000000000000000000000440028002800108F
:101DB000002800280044000000000000000000008F
:101DC00000440044002800280028001000100010E3
:101DD0000010000000000000007800080010002043
:101DE00000200040007800000000000000100020EB
:101DF00000200020002000400020002000200020C3
:101E000000200000002000200020002000200020F2
:101E100000200020002000200020000000400020C2
:101E200000200020002000100020002000200020C2
:101E300000200000000000000000007400580000B6
:101E40000000000000000000000000000000007022
:101E50000050005000500050005000500070000032
:101E600000000000841E0008000000207800000030
:101E7000080A0008FC1E000878000020C84800007E
:101E8000180A000800000000000000000000000028
:101E900000000000000000000000FFFF0000000044
:101EA000621500080C000C0000000000000000009B
:101EB0000000000000000000000000000000000022
:101EC0000000000000000000000000000000000012
:101ED000FFFFFFFF00000000000000000000000006
:101EE000F8430000000000000000000000000000B7
:0C1EF0000000000000000000AAAAAAAA3E
:0400000508000131BD
:00000001FF
