:020000040800F2
:10000000201E0020D10100085F0300085B030008E8
:100010005D030008B1020008D504000800000000DC
:100020000000000000000000000000004501000882
:10003000B30200080000000079010008C50D0008A7
:10004000EB010008EB010008EB010008EB010008E0
:10005000EB010008EB010008EB010008EB010008D0
:10006000EB010008EB010008EB010008EB010008C0
:10007000EB010008EB010008EB010008EB010008B0
:10008000EB010008EB010008EB010008EB010008A0
:10009000EB010008EB010008EB010008EB01000890
:1000A000EB010008EB010008EB010008EB01000880
:1000B000EB010008EB010008EB010008EB01000870
:1000C000EB010008EB010008EB010008EB01000860
:1000D000EB010008EB010008EB010008EB01000850
:1000E000EB010008EB010008EB010008EB01000840
:1000F000EB010008EB010008EB010008EB01000830
:10010000EB010008EB010008EB010008EB0100081F
:10011000EB010008EB010008EB010008EB0100080F
:10012000EB010008EB010008EB010008EB010008FF
:10013000DFF80CD000F08EF800480047F504000806
:10014000201E00201A4B19680868B0E8F00F80F3F1
:1001500009884FF0000080F311884EF00D0E7047B3
:100160000000000003480068006880F3088862B659
:1001700000DF00BF08ED00E0EFF309800C4B1A68C8
:1001800020E9F00F106008B54FF0BF0080F3118830
:1001900000F0D4FD4FF0000080F31188BDE8084066
:1001A00019680868B0E8F00F80F30988704700BF4D
:1001B0000800002001B44FF0BF0080F3118801BC9B
:1001C000704701B44FF0000080F3118801BC704704
:1001D0000648804706480047FEE7FEE7FEE7FEE7E1
:1001E000FEE7FEE7FEE7FEE7FEE7FEE78504000820
:1001F0003101000840EA01039B0703D009E008C968
:10020000121F08C0042AFAD203E011F8013B00F8DB
:10021000013B521EF9D27047D2B201E000F8012B27
:10022000491EFBD270470022F6E710B513460A4676
:1002300004461946FFF7F0FF204610BD10B50446EE
:1002400004E00B7800F8013B03B1491C521EF8D2C0
:10025000204610BD064C074D06E0E06840F0010363
:1002600094E8070098471034AC42F6D3FFF764FFD8
:10027000381400085814000800F088F80A4D0B4C98
:1002800000262068411C2160A842FAD9002026607F
:1002900000F098F8012000F095F8022000F092F8A4
:1002A000032000F08FF8ECE740420F000000002030
:1002B000FEE77047F0B5CA78002502F00F03D206BA
:1002C00001D58A7813430A784FF00F0E12F0FF0F12
:1002D0004FF001021CD004680F8802FA05F637407F
:1002E000B74211D14FEA850C0EFA0CF724EA070742
:1002F00003FA0CF43C43CF78282F02D0482F02D0C9
:1003000002E0466100E006616D1C082DE4D3046044
:100310000C88FF2C1ED944685FF0000606F1080720
:1003200002FA07F50F882F40AF420FD14FEA860C33
:100330000EFA0CF7BC4303FA0CF73C43CF78282F96
:1003400000D14561CF78482F00D10561761C082E79
:10035000E4D34460F0BD01617047FEE7FEE77047FB
:100360000249084302490860704700000000FA058E
:100370000CED00E0044A0029916901D0014300E03E
:1003800081439161704700000010024038B501219F
:100390008020FFF7EFFF4FF4F864ADF80040102025
:1003A0008DF803000320064D8DF8020069462846AB
:1003B000FFF780FF21462846FFF7CDFF38BD00003C
:1003C000001C014003490A68034B33F81000424007
:1003D0000A6070470C1C01402C1400080CB5002169
:1003E000264801910091026842F4803202604FF485
:1003F000A063026802F400320092019A521C01923A
:10040000009A12B9019A9A42F3D10268920333D545
:10041000012100911A490A6842F010020A600A6834
:1004200022F003020A600A6842F002020A60416890
:10043000416041684160416841F4806141604168C8
:1004400021F47C114160416841F4E8114160016888
:1004500041F08071016001688901FCD5416821F09B
:1004600003014160416841F0020141604168C1F30C
:1004700081010229FAD10CBD00910CBD001002408F
:10048000002002400F4810B5016841F001010160F1
:1004900041680D4A1140416001680C4A11400160F9
:1004A000016821F480210160416821F4FE0141606E
:1004B0004FF41F018160FFF791FF05494FF0006085
:1004C000086010BD001002400000FFF8FFFFF6FEBC
:1004D00008ED00E0FEE702E008C8121F08C1002A8C
:1004E000FAD170477047002001E001C1121F002AB5
:1004F000FBD170471FB54FF44070FFF731FF0A2260
:10050000002000920749CDE90110034603904FF403
:10051000007205A1064800F0EFFD00F0E1FB04B019
:10052000002010BD04000020424B5F474E440000F5
:100530007902000870B50B4C054620684560E068FC
:100540002168854205D2A06BBDE87040091D00F00E
:1005500052BA606B091D00F04EFA206B854200D242
:10056000256370BD0800002010B500F07DFA0C4C2A
:10057000206880B90B4800F030FA0A48143000F0C7
:100580002CFA0848A0601430E06000220C210A20F8
:1005900000F028FC2060BDE8104000F06FBA0000B9
:1005A00044000020F801002070B5134C606800285A
:1005B00021D000F0BBFB114D2868C0B100F0A0FEB7
:1005C00000F052FAE868C568281D00F03AFAA06801
:1005D000401EA0606068401E606000F04FFA286B0B
:1005E00000F056FA2846BDE8704000F051BABDE868
:1005F000704000F085BE70BD08000020D0010020D2
:1006000030B403680D46002B0CD0026CC1688C1806
:10061000C46041688C4200D3C360C168284630BCC6
:10062000FFF7E8BD30BC704710B51346026C0446B6
:100630008AB1CBB1E068FFF7DDFDE168206C091AF3
:10064000E1602268914202D26168081AE060A06B02
:10065000401CA06310BD20680028F8D1606800F03D
:10066000E1FA00206060F2E7A068FFF7C3FD216CAB
:10067000A0680844A06061688842E8D32068A06050
:10068000E5E70000044C00BFFFF78EFF206801285B
:10069000FAD900F01BFAF7E7A400002070B5002497
:1006A00041600B4D0061914206D8D11A8269914296
:1006B00006D2011DE86807E09A4203D2994201D3AD
:1006C000012403E0011DA86800F095F9204670BDE3
:1006D0004400002070B588B002A800F089F80546F3
:1006E000214E36E0069C24B1606910B1201D00F057
:1006F000A8F9049830B101282BD002281DD0032876
:1007000027D123E00598A169034601442A462046E3
:10071000FFF7C4FF01281CD1616A20468847E069C1
:10072000012816D1002000900598A16900234218E5
:100730001946204600F056FE0BE005982B4641195D
:10074000A0611A462046FFF7A9FF02E0204600F00C
:100750009FF900231A4604A9306800F067FB0028BF
:10076000C0D108B070BD0000440000202DE9FC415C
:100770000F46054600F0DAFA01A800F039F8044601
:10078000019818B100F0BCFDBDE8FC81174E17BB05
:10079000A54220D800F0B4FDB0682746C068C46800
:1007A000201D00F04EF9E069012810D1A0692B4608
:1007B00041193A462046FFF771FF012807D1002072
:1007C0000346014600902A46204600F00BFE616A6F
:1007D00020468847D8E7291B306800F07FF900F0F1
:1007E0008FFD0028D0D100F071F9CDE74400002042
:1007F00070B5054600F04AFD064E04467068844216
:1008000003D200F009F8012000E000202860204613
:10081000746070BD44000020F8B5154D1FE0C1683C
:100820000E68C068C468201D00F00BF9616A20469C
:100830008847E069012812D1A0693044B04206D946
:1008400024616060211DA86800F0D5F807E0002051
:100850000346014600903246204600F0C3FDA868DA
:1008600001680029DBD1E968C5E90210F8BD000084
:1008700044000020074CA068016841B1C068002115
:10088000D0F80000FFF772FFFFF724FFF3E7012124
:100890000020F7E74400002070B5044600F0E4F8BB
:1008A00004F12405A06C0AE0606A50B1284600F00B
:1008B000F9FC08B100F07EF9A06C401EA06400288D
:1008C000F2DC4FF0FF36A66400F0D8F800F0CCF868
:1008D00004F11005606C0AE0206950B1284600F070
:1008E000E1FC08B100F066F9606C401E606400280D
:1008F000F2DC6664BDE8704000F0C0B82DE9F0415C
:100900000446002500F012FA2A4A02F10801536851
:1009100001F1080063B9284B0B6000234FF4C05667
:100920004B60C0E90036244BC3E900060123536045
:1009300041F2FF7354B11034660704D004F0070687
:10094000C6F108063444661E9E4202D300F0D8FC6D
:100950002AE0184B0968083301E00B4631464E681F
:10096000A64202D20E68002EF7D18142EED01D6859
:100970000868186048681035001B20280DD90B192D
:1009800058600C484C6008305E6800E020460468FF
:100990006768B742FAD31C60036048681168081A98
:1009A000106000F0ADFC0DB900F016F82846BDE867
:1009B000F0810000580000202002002010B5031F25
:1009C0004FF080741C601B1F1960191F00230B60FF
:1009D000143940380A6010BDFEE700F108014FF0FD
:1009E000FF32C0E90112C16001610021016070475E
:1009F00000210161704710B50B685A1C02D000F14C
:100A0000080202E0026904E05268546824689C42CB
:100A1000FAD953684B6099608A6051600861016837
:100A2000491C016010BD426853684B6043688B608D
:100A3000536899605160416008610168491C016018
:100A40007047D0E901128A60D0E901125160016952
:100A50004A68824201D182684A60002202610868C5
:100A6000401E08607047000010B5FFF7A3FB024866
:100A70000168491C016010BD54000020034908684A
:100A8000401E086001D1FFF79CBB70475400002056
:100A900010B5002817D0A0F1100400F047F90A485B
:100AA000616800E01046026853688B42FAD3226006
:100AB0000460054861680838026811440160BDE8B7
:100AC000104000F01DBC10BD6000002002494FF036
:100AD000805008607047000004ED00E070B50D46DE
:100AE0000446FFF7C1FF626C0020521C00D1606415
:100AF000A16C491C00D1A064FFF7C0FFA06B20B916
:100B0000294604F1240000F079F82046BDE8704041
:100B1000FFF7C2BE2DE9F041244CE06920B1206A04
:100B2000401C2062BDE8F081E068401CE060E068A5
:100B30004FF0FF3570B9606BA16B6163A063A06A71
:100B4000401CA062606B0068A8B1606BC068C068A0
:100B500040682063E068216B8842E3D3144F606BE8
:100B6000006850B1606BC068C668E1687068814217
:100B700005D22063D6E72563ECE72563D2E7301D75
:100B8000FFF75FFFB06A18B106F11800FFF759FFD1
:100B9000F06A6169884200D9606100EB800007EB70
:100BA0008000311DFFF73FFFD9E70000080000205B
:100BB000A40000200149012048627047080000207D
:100BC00070B50C4D0C4629681831FFF714FF2868E2
:100BD000001DFFF736FF601C05D0E8682044BDE823
:100BE0007040FFF7A7BC2968BDE870400248091DA6
:100BF000FFF719BF08000020E401002070B5084C81
:100C00000D4621681831FFF70EFF2068001DFFF721
:100C100018FFE0682844BDE87040FFF78BBC000077
:100C20000800002010B504001BD0E16CE06A884287
:100C300017D0201DFFF705FFE06CE062C0F10C004B
:100C40000849A061E06A4A69904200D948610649B2
:100C500000EB800001EB8000211DBDE81040FFF794
:100C6000E2BE10BD08000020A400002070B5164DA3
:100C70000446C06A2968C96A884223D22868134E8C
:100C8000C06AC0F10C00A061E16A606901EB8101FA
:100C900006EB8101884212D1201DFFF7D2FE2868A1
:100CA000C06AE0626969884200D9686100EB80002F
:100CB00006EB8000211DBDE87040FFF7B4BE286838
:100CC000C06AE06270BD000008000020A40000209F
:100CD00002498A6A0260C9684160704708000020C2
:100CE0001FB50024009401940294234680220BA196
:100CF0000C48039400F000FA01280DD100F052FBDB
:100D0000012809D1FFF756FA074801218161C46023
:100D1000BDE81F4000F038B81FBD000049444C45F5
:100D20000000000085060008080000200248C16994
:100D3000491CC16170470000080000201048C269CA
:100D4000104922B1012141627047521E426142693D
:100D500002EB820251F82220002A4269F5D002EB10
:100D6000820201EB82014A68526801F108034A607D
:100D70009A4201D152684A60D16801607047000010
:100D800008000020A40000200B4810B5016841F4C1
:100D90007F010160016841F07F4101604FF0E02078
:100DA0000649416107210161054900200860FFF7FC
:100DB000D9F9002010BD000020ED00E03F1901002E
:100DC00054000020064910B54FF080500860FFF72E
:100DD000F1F9FFF79FFEBDE81040FFF7F2B9000000
:100DE00004ED00E02DE9F04190460F4605004FF07C
:100DF000000618D05020FFF781FD040013D005FB3A
:100E000007F0401CFFF77AFD206048B1C4E90F5796
:100E10000121204600F08EF884F84D80264602E03D
:100E20002046FFF735FE3046BDE8F0812DE9FF434F
:100E3000002683B0984689460446374600F12405CB
:100E4000FFF712FEA06B48B349462046E668FFF75D
:100E5000D7FBB8F1000F0FD0E660606A30B12846CA
:100E600000F020FA10B100BFFFF730FEFFF706FEDA
:100E7000012007B0BDE8F083A06B401EA06320688E
:100E800010B900F0EFF9606020690028EED004F19D
:100E9000100000F007FA0128E6D0E7E7059808B14E
:100EA0001EB106E0FFF7EAFD1DE06846FFF710FF00
:100EB0000126FFF7E3FDFFF739FFFFF7D5FD606C73
:100EC000401C00D16764A06C401C00D1A764FFF7F0
:100ED000D5FD05A9684600F0E9F830B12046FFF7D6
:100EE000DBFC00F00DFA0020C3E7FFF7BDFDA06BAF
:100EF00038B1FFF7C3FD2046FFF7CEFC00F000FA43
:100F00009EE7FFF7BBFD206830B9FFF7ADFD6068D5
:100F1000FFF7ACFEFFF7B2FD28460599FFF750FE3C
:100F20002046FFF7B9FC00F0EBF9002888D1FFF765
:100F3000CDFD85E770B501250446012909D0606A19
:100F400018B12069002510B91BE0206908B10025FF
:100F500017E0D4E90F02216800FB0213636000234D
:100F6000A363401E00FB0210C4E90210581E606417
:100F7000A06404F11000FFF730FD04F12400FFF736
:100F80002CFD284670BD2DE9FF41002582B01F468B
:100F9000884604462E46FFF767FDA16BE06B814251
:100FA00014D23A4641462046FFF73EFB606A38B10C
:100FB00004F1240000F076F9012801D1FFF786FD45
:100FC000FFF75CFD012006B0BDE8F081049808B190
:100FD0001DB106E0FFF752FD1DE06846FFF778FE01
:100FE0000125FFF74BFDFFF7A1FEFFF73DFD606C0C
:100FF000401C00D16664A06C401C00D1A664FFF7C1
:101000003DFD04A9684600F051F830B12046FFF7D5
:1010100043FC00F075F90020D5E7FFF725FDA06B34
:10102000E16B884210D1FFF729FD04F1100004990B
:10103000FFF7C6FD2046FFF72FFC00F061F90028FE
:10104000A9D1FFF743FDA6E7FFF718FD2046FFF7FC
:1010500023FC00F055F99EE72DE9F0411E461546A8
:101060000F460446FFF7A6F8A06BE16B884217D243
:10107000324639462046FFF7D7FAA06C411C03D010
:10108000401CA06401240CE0606A0028FAD004F13E
:10109000240000F007F90028F4D001202860F1E7CF
:1010A0000024FFF78EF82046BDE8F08170B50D46AC
:1010B0000446FFF7D9FC2868411C14D00D4A21686A
:1010C000936A994203D06168D36899420DD96168E7
:1010D000D3685B1A834208D2D268511A401A28603A
:1010E0002046FFF7F5FD002400E00124FFF7C6FCD1
:1010F000204670BD080000202DE9FF5F9B46DDE91A
:101100000E6815468A465020109FFFF7F7FB040033
:101110004DD0A8008146E7B338462063D0B3A5225E
:101120004946FFF779F86FF0030101EB8501206B69
:101130003546084420F007075146102204F13400D8
:10114000FFF77CF8002084F843000C2D00D30B251A
:10115000E562201DE564FFF74BFC04F11800FFF782
:1011600047FC2461C5F10C016462A1615A4638460E
:101170000099FFF723FC2060B8F1000F01D0C8F8F8
:101180000040FFF771FC344DA868401CA860286837
:1011900001E006E008E0DFF8C48058B1A86988B330
:1011A00036E0FFF7ABFBB8E72046FFF771FC4FF0E6
:1011B000FF344CE02C60A868012829D15FF00007BB
:1011C00007EB870108EB8100FFF707FC7F1C0C2F62
:1011D000F6D32248F030FFF700FC2148FFF7FDFB73
:1011E0001F481430FFF7F9FB1D482830FFF7F5FBC7
:1011F0001B483C30FFF7F1FB194814386863143082
:10120000A86305E0FFE72868C06AB04200D82C60F8
:10121000E06A2969884200D92861E96A6164491C49
:10122000E9626969884200D9686100EB800108EBD6
:101230008100211DFFF7F7FB0124FFF71FFCA869C0
:1012400028B12868C06AB04201D2FFF73FFC04B061
:101250002046BDE8F09F000008000020A400002008
:10126000A801002001480068704700000800002025
:101270000548816919B1C06918B102207047002082
:1012800070470120704700000800002010B5FFF7EC
:10129000EBFB0348C468FFF7F1FB204610BD0000DC
:1012A0000800002070B5C068C46804F11800064644
:1012B000FFF7C7FB0F4DE86910B131460E480DE04E
:1012C000201DFFF7BEFBE06A6969884200D96861AA
:1012D0000A4900EB800001EB8000211DFFF7A3FB12
:1012E000E06A2968C96A884201D3012070BD0020E4
:1012F00070BD000008000020BC010020A4000020F8
:101300002DE9F0470026FFF7AFFB244CE069401EB3
:10131000E061E06998BBA06888B3DFF884800025AD
:10132000A8F58C791AE0C068C76807F11800FFF7C4
:1013300088FB381DFFF785FBF86A6169884200D990
:10134000606100EB800109EB8100391DFFF76BFB49
:10135000F86A2168C96A884200D30125D8F80010CC
:1013600040460029DFD1206A28B909E0FFF7D2FB07
:10137000206A401E2062206A0028F7D104E008E0BD
:1013800015B9606A012804D1002001266062FFF7C8
:101390009DFBFFF773FB3046BDE8F0870800002097
:1013A000BC0100201FB50024FFF7DEF809480068E3
:1013B00060B100200B21CDE900100290034603909C
:1013C000802205A10648FFF797FE044604B0204698
:1013D00010BD000044000020546D7220537663005D
:1013E00075080008FEB5104C1D460346276800200E
:1013F000089E002F08D08DE80E0035B100232A4644
:1014000069463846FFF728FEFEBDFFF731FF012889
:101410004FF0000305D0002269462068FFF7B3FDB6
:10142000FEBD3246F8E70000440000204000800086
:101430000001000200040000581400080000002011
:1014400070000000D6040008C814000870000020D6
:10145000B01D0000E60400080000000000000000CD
:10146000000000000000000000000000000000007C
:10147000000000000000000000000000000000006C
:10148000000000000000000000000000000000005C
:10149000FFFFFFFF00000000000000000000000050
:1014A000000000000000000000000000AAAAAAAA94
:1014B0000018000000000000000000000000000014
:0814C000000000000000000024
:0400000508000131BD
:00000001FF
